{
  "transactions": [
    {
      "hash": "0x88206c08f037e2b8db2ea27e1264172f3399eb84fafac8d1425eb3443ce43f54",
      "transactionType": "CALL",
      "contractName": null,
      "contractAddress": "0x2007185b366b1d8b7d4d79f770ba6d6a3d760583",
      "function": "approve(address,uint256)",
      "arguments": [
        "0x0f087BE77a6Be9bCC202d4689Fb3f82823A68A24",
        "1025000000000000000000"
      ],
      "transaction": {
        "from": "0xaf992234bd8606b459eeb57f4eb01da8d845cb84",
        "to": "0x2007185b366b1d8b7d4d79f770ba6d6a3d760583",
        "gas": "0xf9a9",
        "value": "0x0",
        "input": "0x095ea7b30000000000000000000000000f087be77a6be9bcc202d4689fb3f82823a68a2400000000000000000000000000000000000000000000003790bb855137640000",
        "nonce": "0x0",
        "chainId": "0xaa36a7"
      },
      "additionalContracts": [],
      "isFixedGasLimit": false
    },
    {
      "hash": "0x76cb1c65c6201533b979934c9bac7fd7135607d51810ff3626d13506fe064864",
      "transactionType": "CALL",
      "contractName": null,
      "contractAddress": "0x0f087be77a6be9bcc202d4689fb3f82823a68a24",
      "function": "buy(uint256,uint256)",
      "arguments": [
        "1000000000000000000000",
        "1"
      ],
      "transaction": {
        "from": "0xaf992234bd8606b459eeb57f4eb01da8d845cb84",
        "to": "0x0f087be77a6be9bcc202d4689fb3f82823a68a24",
        "gas": "0x4d677",
        "value": "0x0",
        "input": "0xd6febde800000000000000000000000000000000000000000000003635c9adc5dea000000000000000000000000000000000000000000000000000000000000000000001",
        "nonce": "0x1",
        "chainId": "0xaa36a7"
      },
      "additionalContracts": [],
      "isFixedGasLimit": false
    }
  ],
  "receipts": [
    {
      "status": "0x1",
      "cumulativeGasUsed": "0x16f0ea0",
      "logs": [
        {
          "address": "0x2007185b366b1d8b7d4d79f770ba6d6a3d760583",
          "topics": [
            "0x8c5be1e5ebec7d5bd14f71427d1e84f3dd0314c0f7b2291e5b200ac8c7c3b925",
            "0x000000000000000000000000af992234bd8606b459eeb57f4eb01da8d845cb84",
            "0x0000000000000000000000000f087be77a6be9bcc202d4689fb3f82823a68a24"
          ],
          "data": "0x00000000000000000000000000000000000000000000003790bb855137640000",
          "blockHash": "0xe0de34c6778895227f25f903c254f449ac3d1d17d393ca816afcdc434d70e593",
          "blockNumber": "0x8533ca",
          "transactionHash": "0x88206c08f037e2b8db2ea27e1264172f3399eb84fafac8d1425eb3443ce43f54",
          "transactionIndex": "0x95",
          "logIndex": "0x123",
          "removed": false
        }
      ],
      "logsBloom": "0x00000000000000000100000000000000000000010000000000000000000000000000000000000000000000000000000000000000000000000000000000200000000000000000000000000100000000000000000000000000000000000000000000200000000000000000000000000000000000000000000000000000000000000100000000000000000000000000000000000000000000000000000008000000020000000000000020000100000000000000000000000000000000000000000000000000000000000000000000000000000000000000000000000000000000000010000000000000000000000000008000000000000000000000000000000000",
      "type": "0x0",
      "transactionHash": "0x88206c08f037e2b8db2ea27e1264172f3399eb84fafac8d1425eb3443ce43f54",
      "transactionIndex": "0x95",
      "blockHash": "0xe0de34c6778895227f25f903c254f449ac3d1d17d393ca816afcdc434d70e593",
      "blockNumber": "0x8533ca",
      "gasUsed": "0xb4c0",
      "effectiveGasPrice": "0x12d81f",
      "blobGasUsed": "0x0",
      "from": "0xaf992234bd8606b459eeb57f4eb01da8d845cb84",
      "to": "0x2007185b366b1d8b7d4d79f770ba6d6a3d760583",
      "contractAddress": null
    },
    {
      "status": "0x1",
      "cumulativeGasUsed": "0x1725d71",
      "logs": [
        {
          "address": "0x0f087be77a6be9bcc202d4689fb3f82823a68a24",
          "topics": [
            "0xddf252ad1be2c89b69c2b068fc378daa952ba7f163c4a11628f55a4df523b3ef",
            "0x0000000000000000000000000000000000000000000000000000000000000000",
            "0x000000000000000000000000af992234bd8606b459eeb57f4eb01da8d845cb84",
            "0x0000000000000000000000000000000000000000000000000000000000000002"
          ],
          "data": "0x",
          "blockHash": "0xe0de34c6778895227f25f903c254f449ac3d1d17d393ca816afcdc434d70e593",
          "blockNumber": "0x8533ca",
          "transactionHash": "0x76cb1c65c6201533b979934c9bac7fd7135607d51810ff3626d13506fe064864",
          "transactionIndex": "0x96",
          "logIndex": "0x124",
          "removed": false
        },
        {
          "address": "0x0f087be77a6be9bcc202d4689fb3f82823a68a24",
          "topics": [
            "0x1cbc5ab135991bd2b6a4b034a04aa2aa086dac1371cb9b16b8b5e2ed6b036bed",
            "0x000000000000000000000000af992234bd8606b459eeb57f4eb01da8d845cb84",
            "0x0000000000000000000000000000000000000000000000000000000000000002"
          ],
          "data": "0x00000000000000000000000000000000000000000000003635c9adc5dea00000",
          "blockHash": "0xe0de34c6778895227f25f903c254f449ac3d1d17d393ca816afcdc434d70e593",
          "blockNumber": "0x8533ca",
          "transactionHash": "0x76cb1c65c6201533b979934c9bac7fd7135607d51810ff3626d13506fe064864",
          "transactionIndex": "0x96",
          "logIndex": "0x125",
          "removed": false
        },
        {
          "address": "0x2007185b366b1d8b7d4d79f770ba6d6a3d760583",
          "topics": [
            "0x8c5be1e5ebec7d5bd14f71427d1e84f3dd0314c0f7b2291e5b200ac8c7c3b925",
            "0x000000000000000000000000af992234bd8606b459eeb57f4eb01da8d845cb84",
            "0x0000000000000000000000000f087be77a6be9bcc202d4689fb3f82823a68a24"
          ],
          "data": "0x0000000000000000000000000000000000000000000000015af1d78b58c40000",
          "blockHash": "0xe0de34c6778895227f25f903c254f449ac3d1d17d393ca816afcdc434d70e593",
          "blockNumber": "0x8533ca",
          "transactionHash": "0x76cb1c65c6201533b979934c9bac7fd7135607d51810ff3626d13506fe064864",
          "transactionIndex": "0x96",
          "logIndex": "0x126",
          "removed": false
        },
        {
          "address": "0x2007185b366b1d8b7d4d79f770ba6d6a3d760583",
          "topics": [
            "0xddf252ad1be2c89b69c2b068fc378daa952ba7f163c4a11628f55a4df523b3ef",
            "0x000000000000000000000000af992234bd8606b459eeb57f4eb01da8d845cb84",
            "0x000000000000000000000000e31aa6a4e35d523cb0ba6dfc72e83966ae0a417f"
          ],
          "data": "0x00000000000000000000000000000000000000000000003635c9adc5dea00000",
          "blockHash": "0xe0de34c6778895227f25f903c254f449ac3d1d17d393ca816afcdc434d70e593",
          "blockNumber": "0x8533ca",
          "transactionHash": "0x76cb1c65c6201533b979934c9bac7fd7135607d51810ff3626d13506fe064864",
          "transactionIndex": "0x96",
          "logIndex": "0x127",
          "removed": false
        },
        {
          "address": "0x2007185b366b1d8b7d4d79f770ba6d6a3d760583",
          "topics": [
            "0x8c5be1e5ebec7d5bd14f71427d1e84f3dd0314c0f7b2291e5b200ac8c7c3b925",
            "0x000000000000000000000000af992234bd8606b459eeb57f4eb01da8d845cb84",
            "0x0000000000000000000000000f087be77a6be9bcc202d4689fb3f82823a68a24"
          ],
          "data": "0x0000000000000000000000000000000000000000000000000000000000000000",
          "blockHash": "0xe0de34c6778895227f25f903c254f449ac3d1d17d393ca816afcdc434d70e593",
          "blockNumber": "0x8533ca",
          "transactionHash": "0x76cb1c65c6201533b979934c9bac7fd7135607d51810ff3626d13506fe064864",
          "transactionIndex": "0x96",
          "logIndex": "0x128",
          "removed": false
        },
        {
          "address": "0x2007185b366b1d8b7d4d79f770ba6d6a3d760583",
          "topics": [
            "0xddf252ad1be2c89b69c2b068fc378daa952ba7f163c4a11628f55a4df523b3ef",
            "0x000000000000000000000000af992234bd8606b459eeb57f4eb01da8d845cb84",
            "0x000000000000000000000000e31aa6a4e35d523cb0ba6dfc72e83966ae0a417f"
          ],
          "data": "0x0000000000000000000000000000000000000000000000015af1d78b58c40000",
          "blockHash": "0xe0de34c6778895227f25f903c254f449ac3d1d17d393ca816afcdc434d70e593",
          "blockNumber": "0x8533ca",
          "transactionHash": "0x76cb1c65c6201533b979934c9bac7fd7135607d51810ff3626d13506fe064864",
          "transactionIndex": "0x96",
          "logIndex": "0x129",
          "removed": false
        }
      ],
      "logsBloom": "0x04000000000000000100000000000000000000010000000010000000000000000000000200000000000000000000000000000000000000000000000000200000000000080000000000000108000020000000000000000000000000000000000000200000020000000000000000000800000000000000000000000010000000000100000000000000000000000000000000000100000000000000000008000000020000000400000060000100000000000000000000000000000000000000000400000002000000000000000000000000000000000000000000000000000020000010040000000000000000000000008000000000008000000000000000000000",
      "type": "0x0",
      "transactionHash": "0x76cb1c65c6201533b979934c9bac7fd7135607d51810ff3626d13506fe064864",
      "transactionIndex": "0x96",
      "blockHash": "0xe0de34c6778895227f25f903c254f449ac3d1d17d393ca816afcdc434d70e593",
      "blockNumber": "0x8533ca",
      "gasUsed": "0x34ed1",
      "effectiveGasPrice": "0x12d81f",
      "blobGasUsed": "0x0",
      "from": "0xaf992234bd8606b459eeb57f4eb01da8d845cb84",
      "to": "0x0f087be77a6be9bcc202d4689fb3f82823a68a24",
      "contractAddress": null
    }
  ],
  "libraries": [],
  "pending": [],
  "returns": {},
  "timestamp": 1752102014,
  "chain": 11155111,
  "commit": "e980b25"
}