{
  "transactions": [
    {
      "hash": "0x2d5c59bd1f5bd93289ddbcde53b35c0eb6507034f7b025279b8566cda016effa",
      "transactionType": "CREATE",
      "contractName": "BUSD",
      "contractAddress": "0x3abcf0710cfcca257f06cbd17007269cca889a4f",
      "function": null,
      "arguments": null,
      "transaction": {
        "from": "0xe31aa6a4e35d523cb0ba6dfc72e83966ae0a417f",
        "gas": "0xcb588",
        "value": "0x0",
        "input": "0x60806040523480156200001157600080fd5b50604080518082018252600480825263109554d160e21b60208084018290528451808601909552918452908301529060036200004e838262000214565b5060046200005d828262000214565b5050506200007d336a084595161401484a0000006200008360201b60201c565b62000308565b6001600160a01b038216620000de5760405162461bcd60e51b815260206004820152601f60248201527f45524332303a206d696e7420746f20746865207a65726f206164647265737300604482015260640160405180910390fd5b8060026000828254620000f29190620002e0565b90915550506001600160a01b0382166000908152602081905260408120805483929062000121908490620002e0565b90915550506040518181526001600160a01b038316906000907fddf252ad1be2c89b69c2b068fc378daa952ba7f163c4a11628f55a4df523b3ef9060200160405180910390a35050565b505050565b634e487b7160e01b600052604160045260246000fd5b600181811c908216806200019b57607f821691505b602082108103620001bc57634e487b7160e01b600052602260045260246000fd5b50919050565b601f8211156200016b57600081815260208120601f850160051c81016020861015620001eb5750805b601f850160051c820191505b818110156200020c57828155600101620001f7565b505050505050565b81516001600160401b0381111562000230576200023062000170565b620002488162000241845462000186565b84620001c2565b602080601f831160018114620002805760008415620002675750858301515b600019600386901b1c1916600185901b1785556200020c565b600085815260208120601f198616915b82811015620002b15788860151825594840194600190910190840162000290565b5085821015620002d05787850151600019600388901b60f8161c191681555b5050505050600190811b01905550565b808201808211156200030257634e487b7160e01b600052601160045260246000fd5b92915050565b6108c380620003186000396000f3fe608060405234801561001057600080fd5b50600436106100a95760003560e01c80633950935111610071578063395093511461012357806370a082311461013657806395d89b411461015f578063a457c2d714610167578063a9059cbb1461017a578063dd62ed3e1461018d57600080fd5b806306fdde03146100ae578063095ea7b3146100cc57806318160ddd146100ef57806323b872dd14610101578063313ce56714610114575b600080fd5b6100b66101c6565b6040516100c3919061070d565b60405180910390f35b6100df6100da366004610777565b610258565b60405190151581526020016100c3565b6002545b6040519081526020016100c3565b6100df61010f3660046107a1565b610272565b604051601281526020016100c3565b6100df610131366004610777565b610296565b6100f36101443660046107dd565b6001600160a01b031660009081526020819052604090205490565b6100b66102d5565b6100df610175366004610777565b6102e4565b6100df610188366004610777565b61037b565b6100f361019b3660046107ff565b6001600160a01b03918216600090815260016020908152604080832093909416825291909152205490565b6060600380546101d590610832565b80601f016020809104026020016040519081016040528092919081815260200182805461020190610832565b801561024e5780601f106102235761010080835404028352916020019161024e565b820191906000526020600020905b81548152906001019060200180831161023157829003601f168201915b5050505050905090565b600033610266818585610389565b60019150505b92915050565b6000336102808582856104ad565b61028b85858561053f565b506001949350505050565b3360008181526001602090815260408083206001600160a01b038716845290915281205490919061026690829086906102d090879061086c565b610389565b6060600480546101d590610832565b3360008181526001602090815260408083206001600160a01b03871684529091528120549091908381101561036e5760405162461bcd60e51b815260206004820152602560248201527f45524332303a2064656372656173656420616c6c6f77616e63652062656c6f77604482015264207a65726f60d81b60648201526084015b60405180910390fd5b61028b8286868403610389565b60003361026681858561053f565b6001600160a01b0383166103eb5760405162461bcd60e51b8152602060048201526024808201527f45524332303a20617070726f76652066726f6d20746865207a65726f206164646044820152637265737360e01b6064820152608401610365565b6001600160a01b03821661044c5760405162461bcd60e51b815260206004820152602260248201527f45524332303a20617070726f766520746f20746865207a65726f206164647265604482015261737360f01b6064820152608401610365565b6001600160a01b0383811660008181526001602090815260408083209487168084529482529182902085905590518481527f8c5be1e5ebec7d5bd14f71427d1e84f3dd0314c0f7b2291e5b200ac8c7c3b925910160405180910390a3505050565b6001600160a01b038381166000908152600160209081526040808320938616835292905220546000198114610539578181101561052c5760405162461bcd60e51b815260206004820152601d60248201527f45524332303a20696e73756666696369656e7420616c6c6f77616e63650000006044820152606401610365565b6105398484848403610389565b50505050565b6001600160a01b0383166105a35760405162461bcd60e51b815260206004820152602560248201527f45524332303a207472616e736665722066726f6d20746865207a65726f206164604482015264647265737360d81b6064820152608401610365565b6001600160a01b0382166106055760405162461bcd60e51b815260206004820152602360248201527f45524332303a207472616e7366657220746f20746865207a65726f206164647260448201526265737360e81b6064820152608401610365565b6001600160a01b0383166000908152602081905260409020548181101561067d5760405162461bcd60e51b815260206004820152602660248201527f45524332303a207472616e7366657220616d6f756e7420657863656564732062604482015265616c616e636560d01b6064820152608401610365565b6001600160a01b038085166000908152602081905260408082208585039055918516815290812080548492906106b490849061086c565b92505081905550826001600160a01b0316846001600160a01b03167fddf252ad1be2c89b69c2b068fc378daa952ba7f163c4a11628f55a4df523b3ef8460405161070091815260200190565b60405180910390a3610539565b600060208083528351808285015260005b8181101561073a5785810183015185820160400152820161071e565b506000604082860101526040601f19601f8301168501019250505092915050565b80356001600160a01b038116811461077257600080fd5b919050565b6000806040838503121561078a57600080fd5b6107938361075b565b946020939093013593505050565b6000806000606084860312156107b657600080fd5b6107bf8461075b565b92506107cd6020850161075b565b9150604084013590509250925092565b6000602082840312156107ef57600080fd5b6107f88261075b565b9392505050565b6000806040838503121561081257600080fd5b61081b8361075b565b91506108296020840161075b565b90509250929050565b600181811c9082168061084657607f821691505b60208210810361086657634e487b7160e01b600052602260045260246000fd5b50919050565b8082018082111561026c57634e487b7160e01b600052601160045260246000fdfea2646970667358221220e99491969fc21939701c4a563fe0a9b3c0dac10e723081b37193efdea84e589264736f6c63430008130033",
        "nonce": "0x1c",
        "chainId": "0xaa36a7"
      },
      "additionalContracts": [],
      "isFixedGasLimit": false
    },
    {
      "hash": "0xff8b8b78ceeafa67417e5e76f69fe2146f2a7ba75af48a7ced7c75ec95f2f434",
      "transactionType": "CREATE",
      "contractName": "CCNFT",
      "contractAddress": "0x4d6b665edfa00543e94313f6c14d1d72f06b02ee",
      "function": null,
      "arguments": null,
      "transaction": {
        "from": "0xe31aa6a4e35d523cb0ba6dfc72e83966ae0a417f",
        "gas": "0x287978",
        "value": "0x0",
        "input": "0x60806040523480156200001157600080fd5b5060408051808201825260058082526410d0d3919560da1b60208084018290528451808601909552918452908301529060006200004f8382620001bd565b5060016200005e8282620001bd565b5050506200007b62000075620000c260201b60201c565b620000c6565b6001600b556200008f600c80546001019055565b6010805460ff60a01b191690556013805463ffffffff1916620a00fa17905569d3c21bcecceda100000060125562000289565b3390565b600a80546001600160a01b038381166001600160a01b0319831681179093556040519116919082907f8be0079c531659141344cd1fd0a4f28419497f9722a3daafe3b4186f6b6457e090600090a35050565b634e487b7160e01b600052604160045260246000fd5b600181811c908216806200014357607f821691505b6020821081036200016457634e487b7160e01b600052602260045260246000fd5b50919050565b601f821115620001b857600081815260208120601f850160051c81016020861015620001935750805b601f850160051c820191505b81811015620001b4578281556001016200019f565b5050505b505050565b81516001600160401b03811115620001d957620001d962000118565b620001f181620001ea84546200012e565b846200016a565b602080601f831160018114620002295760008415620002105750858301515b600019600386901b1c1916600185901b178555620001b4565b600085815260208120601f198616915b828110156200025a5788860151825594840194600190910190840162000239565b5085821015620002795787850151600019600388901b60f8161c191681555b5050505050600190811b01905550565b6120e480620002996000396000f3fe608060405234801561001057600080fd5b50600436106102325760003560e01c806370c4767111610130578063c6584081116100b8578063dc62c7041161007c578063dc62c704146104ba578063e24b7139146104dd578063e985e9c5146104f0578063f2fde38b1461052c578063ff65226c1461053f57600080fd5b8063c658408114610465578063c87b56dd14610478578063c8a4ee9f1461048b578063d4c3eea01461049e578063d6febde8146104a757600080fd5b80638da5cb5b116100ff5780638da5cb5b1461041857806395d89b41146104295780639cf160f614610431578063a22cb46514610444578063b88d4fde1461045757600080fd5b806370c47671146103e1578063715018a6146103f45780637198ba74146103fc5780637b25f3521461040f57600080fd5b80633a8c3338116101be5780635e383d21116101825780635e383d211461036c5780636352211e1461038c578063637dd7811461039f57806363f04b15146103b357806370a08231146103ce57600080fd5b80633a8c33381461031257806342842e0e146102c6578063432bd3f81461032557806347062402146103385780634f6ccce71461035957600080fd5b806318160ddd1161020557806318160ddd146102b457806323b872dd146102c65780632c06862b146102d95780632f745c59146102ec578063373071f2146102ff57600080fd5b806301ffc9a71461023757806306fdde031461025f578063081812fc14610274578063095ea7b31461029f575b600080fd5b61024a610245366004611b6e565b610553565b60405190151581526020015b60405180910390f35b61026761057e565b6040516102569190611bdb565b610287610282366004611bee565b610610565b6040516001600160a01b039091168152602001610256565b6102b26102ad366004611c23565b6106aa565b005b6008545b604051908152602001610256565b6102b26102d4366004611c4d565b6107bf565b6102b26102e7366004611c97565b6107f5565b6102b86102fa366004611c23565b61083d565b6102b261030d366004611cb4565b6108d3565b600f54610287906001600160a01b031681565b6102b2610333366004611ccf565b610967565b6013546103469061ffff1681565b60405161ffff9091168152602001610256565b6102b8610367366004611bee565b6109b1565b6102b861037a366004611bee565b600d6020526000908152604090205481565b61028761039a366004611bee565b610a44565b6013546103469062010000900461ffff1681565b6013546102879064010000000090046001600160a01b031681565b6102b86103dc366004611cb4565b610abb565b6102b26103ef366004611ccf565b610b42565b6102b2610b84565b6102b261040a366004611cb4565b610bba565b6102b860125481565b600a546001600160a01b0316610287565b610267610c60565b601054610287906001600160a01b031681565b6102b2610452366004611cf3565b610c6f565b6102b26102d4366004611d40565b6102b2610473366004611bee565b610c7e565b610267610486366004611bee565b610cad565b6102b2610499366004611bee565b610d95565b6102b860115481565b6102b26104b5366004611e1c565b610dda565b61024a6104c8366004611bee565b600e6020526000908152604090205460ff1681565b6102b26104eb366004611cb4565b61125d565b61024a6104fe366004611e3e565b6001600160a01b03918216600090815260056020908152604080832093909416825291909152205460ff1690565b6102b261053a366004611cb4565b6112f1565b60105461024a90600160a01b900460ff1681565b60006001600160e01b0319821663780e9d6360e01b148061057857506105788261138c565b92915050565b60606000805461058d90611e71565b80601f01602080910402602001604051908101604052809291908181526020018280546105b990611e71565b80156106065780601f106105db57610100808354040283529160200191610606565b820191906000526020600020905b8154815290600101906020018083116105e957829003601f168201915b5050505050905090565b6000818152600260205260408120546001600160a01b031661068e5760405162461bcd60e51b815260206004820152602c60248201527f4552433732313a20617070726f76656420717565727920666f72206e6f6e657860448201526b34b9ba32b73a103a37b5b2b760a11b60648201526084015b60405180910390fd5b506000908152600460205260409020546001600160a01b031690565b60006106b582610a44565b9050806001600160a01b0316836001600160a01b0316036107225760405162461bcd60e51b815260206004820152602160248201527f4552433732313a20617070726f76616c20746f2063757272656e74206f776e656044820152603960f91b6064820152608401610685565b336001600160a01b038216148061073e575061073e81336104fe565b6107b05760405162461bcd60e51b815260206004820152603860248201527f4552433732313a20617070726f76652063616c6c6572206973206e6f74206f7760448201527f6e6572206e6f7220617070726f76656420666f7220616c6c00000000000000006064820152608401610685565b6107ba83836113dc565b505050565b60405162461bcd60e51b815260206004820152600b60248201526a139bdd08105b1b1bddd95960aa1b6044820152606401610685565b600a546001600160a01b0316331461081f5760405162461bcd60e51b815260040161068590611eab565b60108054911515600160a01b0260ff60a01b19909216919091179055565b600061084883610abb565b82106108aa5760405162461bcd60e51b815260206004820152602b60248201527f455243373231456e756d657261626c653a206f776e657220696e646578206f7560448201526a74206f6620626f756e647360a81b6064820152608401610685565b506001600160a01b03919091166000908152600660209081526040808320938352929052205490565b600a546001600160a01b031633146108fd5760405162461bcd60e51b815260040161068590611eab565b6001600160a01b0381166109455760405162461bcd60e51b815260206004820152600f60248201526e496e76616c6964206164647265737360881b6044820152606401610685565b601080546001600160a01b0319166001600160a01b0392909216919091179055565b600a546001600160a01b031633146109915760405162461bcd60e51b815260040161068590611eab565b6013805461ffff909216620100000263ffff000019909216919091179055565b60006109bc60085490565b8210610a1f5760405162461bcd60e51b815260206004820152602c60248201527f455243373231456e756d657261626c653a20676c6f62616c20696e646578206f60448201526b7574206f6620626f756e647360a01b6064820152608401610685565b60088281548110610a3257610a32611ee0565b90600052602060002001549050919050565b6000818152600260205260408120546001600160a01b0316806105785760405162461bcd60e51b815260206004820152602960248201527f4552433732313a206f776e657220717565727920666f72206e6f6e657869737460448201526832b73a103a37b5b2b760b91b6064820152608401610685565b60006001600160a01b038216610b265760405162461bcd60e51b815260206004820152602a60248201527f4552433732313a2062616c616e636520717565727920666f7220746865207a65604482015269726f206164647265737360b01b6064820152608401610685565b506001600160a01b031660009081526003602052604090205490565b600a546001600160a01b03163314610b6c5760405162461bcd60e51b815260040161068590611eab565b6013805461ffff191661ffff92909216919091179055565b600a546001600160a01b03163314610bae5760405162461bcd60e51b815260040161068590611eab565b610bb8600061144a565b565b600a546001600160a01b03163314610be45760405162461bcd60e51b815260040161068590611eab565b6001600160a01b038116610c325760405162461bcd60e51b8152602060048201526015602482015274496e76616c696420746f6b656e206164647265737360581b6044820152606401610685565b601380546001600160a01b0390921664010000000002640100000000600160c01b0319909216919091179055565b60606001805461058d90611e71565b610c7a33838361149c565b5050565b600a546001600160a01b03163314610ca85760405162461bcd60e51b815260040161068590611eab565b601255565b6000818152600260205260409020546060906001600160a01b0316610d2c5760405162461bcd60e51b815260206004820152602f60248201527f4552433732314d657461646174613a2055524920717565727920666f72206e6f60448201526e3732bc34b9ba32b73a103a37b5b2b760891b6064820152608401610685565b6000610d4360408051602081019091526000815290565b90506000815111610d635760405180602001604052806000815250610d8e565b80610d6d8461156a565b604051602001610d7e929190611ef6565b6040516020818303038152906040525b9392505050565b600a546001600160a01b03163314610dbf5760405162461bcd60e51b815260040161068590611eab565b6000908152600e60205260409020805460ff19166001179055565b6002600b5403610e2c5760405162461bcd60e51b815260206004820152601f60248201527f5265656e7472616e637947756172643a207265656e7472616e742063616c6c006044820152606401610685565b6002600b55601054600160a01b900460ff16610e7f5760405162461bcd60e51b8152602060048201526012602482015271109d5e481a5cc81b9bdd08195b98589b195960721b6044820152606401610685565b600081118015610e9b575060135462010000900461ffff168111155b610edf5760405162461bcd60e51b8152602060048201526015602482015274496e76616c696420616d6f756e7420746f2062757960581b6044820152606401610685565b6000828152600e602052604090205460ff16610f355760405162461bcd60e51b8152602060048201526015602482015274125b9d985b1a59081d985b1d5948199bdc88139195605a1b6044820152606401610685565b601254610f428284611f3b565b601154610f4f9190611f52565b1115610f9d5760405162461bcd60e51b815260206004820152601b60248201527f4d61782076616c756520746f20726169736520657863656564656400000000006044820152606401610685565b610fa78183611f3b565b60116000828254610fb89190611f52565b90915550600090505b81811015611049576000610fd4600c5490565b6000818152600d602052604090208590559050610ff13382611673565b604051848152819033907f1cbc5ab135991bd2b6a4b034a04aa2aa086dac1371cb9b16b8b5e2ed6b036bed9060200160405180910390a3611036600c80546001019055565b508061104181611f65565b915050610fc1565b5060135464010000000090046001600160a01b03166323b872dd33600f546001600160a01b031661107a8587611f3b565b6040516001600160e01b031960e086901b1681526001600160a01b03938416600482015292909116602483015260448201526064016020604051808303816000875af11580156110ce573d6000803e3d6000fd5b505050506040513d601f19601f820116820180604052508101906110f29190611f7e565b61113e5760405162461bcd60e51b815260206004820152601860248201527f43616e6e6f742073656e642066756e647320746f6b656e7300000000000000006044820152606401610685565b6013546000906127109061ffff166111568486611f3b565b6111609190611f3b565b61116a9190611fb1565b905080156112535760135464010000000090046001600160a01b03166323b872dd3360105460405160e084901b6001600160e01b03191681526001600160a01b03928316600482015291166024820152604481018490526064016020604051808303816000875af11580156111e3573d6000803e3d6000fd5b505050506040513d601f19601f820116820180604052508101906112079190611f7e565b6112535760405162461bcd60e51b815260206004820152601760248201527f43616e6e6f742073656e64206665657320746f6b656e730000000000000000006044820152606401610685565b50506001600b5550565b600a546001600160a01b031633146112875760405162461bcd60e51b815260040161068590611eab565b6001600160a01b0381166112cf5760405162461bcd60e51b815260206004820152600f60248201526e496e76616c6964206164647265737360881b6044820152606401610685565b600f80546001600160a01b0319166001600160a01b0392909216919091179055565b600a546001600160a01b0316331461131b5760405162461bcd60e51b815260040161068590611eab565b6001600160a01b0381166113805760405162461bcd60e51b815260206004820152602660248201527f4f776e61626c653a206e6577206f776e657220697320746865207a65726f206160448201526564647265737360d01b6064820152608401610685565b6113898161144a565b50565b60006001600160e01b031982166380ac58cd60e01b14806113bd57506001600160e01b03198216635b5e139f60e01b145b8061057857506301ffc9a760e01b6001600160e01b0319831614610578565b600081815260046020526040902080546001600160a01b0319166001600160a01b038416908117909155819061141182610a44565b6001600160a01b03167f8c5be1e5ebec7d5bd14f71427d1e84f3dd0314c0f7b2291e5b200ac8c7c3b92560405160405180910390a45050565b600a80546001600160a01b038381166001600160a01b0319831681179093556040519116919082907f8be0079c531659141344cd1fd0a4f28419497f9722a3daafe3b4186f6b6457e090600090a35050565b816001600160a01b0316836001600160a01b0316036114fd5760405162461bcd60e51b815260206004820152601960248201527f4552433732313a20617070726f766520746f2063616c6c6572000000000000006044820152606401610685565b6001600160a01b03838116600081815260056020908152604080832094871680845294825291829020805460ff191686151590811790915591519182527f17307eab39ab6107e8899845ad3d59bd9653f200f220920489ca2b5937696c31910160405180910390a3505050565b6060816000036115915750506040805180820190915260018152600360fc1b602082015290565b8160005b81156115bb57806115a581611f65565b91506115b49050600a83611fb1565b9150611595565b60008167ffffffffffffffff8111156115d6576115d6611d2a565b6040519080825280601f01601f191660200182016040528015611600576020820181803683370190505b5090505b841561166b57611615600183611fc5565b9150611622600a86611fd8565b61162d906030611f52565b60f81b81838151811061164257611642611ee0565b60200101906001600160f81b031916908160001a905350611664600a86611fb1565b9450611604565b949350505050565b610c7a82826040518060200160405280600081525061169283836116bb565b61169f6000848484611809565b6107ba5760405162461bcd60e51b815260040161068590611fec565b6001600160a01b0382166117115760405162461bcd60e51b815260206004820181905260248201527f4552433732313a206d696e7420746f20746865207a65726f20616464726573736044820152606401610685565b6000818152600260205260409020546001600160a01b0316156117765760405162461bcd60e51b815260206004820152601c60248201527f4552433732313a20746f6b656e20616c7265616479206d696e746564000000006044820152606401610685565b6117826000838361190a565b6001600160a01b03821660009081526003602052604081208054600192906117ab908490611f52565b909155505060008181526002602052604080822080546001600160a01b0319166001600160a01b03861690811790915590518392907fddf252ad1be2c89b69c2b068fc378daa952ba7f163c4a11628f55a4df523b3ef908290a45050565b60006001600160a01b0384163b156118ff57604051630a85bd0160e11b81526001600160a01b0385169063150b7a029061184d90339089908890889060040161203e565b6020604051808303816000875af1925050508015611888575060408051601f3d908101601f191682019092526118859181019061207b565b60015b6118e5573d8080156118b6576040519150601f19603f3d011682016040523d82523d6000602084013e6118bb565b606091505b5080516000036118dd5760405162461bcd60e51b815260040161068590611fec565b805181602001fd5b6001600160e01b031916630a85bd0160e11b14905061166b565b506001949350505050565b6107ba8383836001600160a01b03831661196b5761196681600880546000838152600960205260408120829055600182018355919091527ff3f7a9fe364faab93b216da50a3214154f22a0a2b415b23a84c8169e8b636ee30155565b61198e565b816001600160a01b0316836001600160a01b03161461198e5761198e83826119c8565b6001600160a01b0382166119a5576107ba81611a65565b826001600160a01b0316826001600160a01b0316146107ba576107ba8282611b14565b600060016119d584610abb565b6119df9190611fc5565b600083815260076020526040902054909150808214611a32576001600160a01b03841660009081526006602090815260408083208584528252808320548484528184208190558352600790915290208190555b5060009182526007602090815260408084208490556001600160a01b039094168352600681528383209183525290812055565b600854600090611a7790600190611fc5565b60008381526009602052604081205460088054939450909284908110611a9f57611a9f611ee0565b906000526020600020015490508060088381548110611ac057611ac0611ee0565b6000918252602080832090910192909255828152600990915260408082208490558582528120556008805480611af857611af8612098565b6001900381819060005260206000200160009055905550505050565b6000611b1f83610abb565b6001600160a01b039093166000908152600660209081526040808320868452825280832085905593825260079052919091209190915550565b6001600160e01b03198116811461138957600080fd5b600060208284031215611b8057600080fd5b8135610d8e81611b58565b60005b83811015611ba6578181015183820152602001611b8e565b50506000910152565b60008151808452611bc7816020860160208601611b8b565b601f01601f19169290920160200192915050565b602081526000610d8e6020830184611baf565b600060208284031215611c0057600080fd5b5035919050565b80356001600160a01b0381168114611c1e57600080fd5b919050565b60008060408385031215611c3657600080fd5b611c3f83611c07565b946020939093013593505050565b600080600060608486031215611c6257600080fd5b611c6b84611c07565b9250611c7960208501611c07565b9150604084013590509250925092565b801515811461138957600080fd5b600060208284031215611ca957600080fd5b8135610d8e81611c89565b600060208284031215611cc657600080fd5b610d8e82611c07565b600060208284031215611ce157600080fd5b813561ffff81168114610d8e57600080fd5b60008060408385031215611d0657600080fd5b611d0f83611c07565b91506020830135611d1f81611c89565b809150509250929050565b634e487b7160e01b600052604160045260246000fd5b60008060008060808587031215611d5657600080fd5b611d5f85611c07565b9350611d6d60208601611c07565b925060408501359150606085013567ffffffffffffffff80821115611d9157600080fd5b818701915087601f830112611da557600080fd5b813581811115611db757611db7611d2a565b604051601f8201601f19908116603f01168101908382118183101715611ddf57611ddf611d2a565b816040528281528a6020848701011115611df857600080fd5b82602086016020830137600060208483010152809550505050505092959194509250565b60008060408385031215611e2f57600080fd5b50508035926020909101359150565b60008060408385031215611e5157600080fd5b611e5a83611c07565b9150611e6860208401611c07565b90509250929050565b600181811c90821680611e8557607f821691505b602082108103611ea557634e487b7160e01b600052602260045260246000fd5b50919050565b6020808252818101527f4f776e61626c653a2063616c6c6572206973206e6f7420746865206f776e6572604082015260600190565b634e487b7160e01b600052603260045260246000fd5b60008351611f08818460208801611b8b565b835190830190611f1c818360208801611b8b565b01949350505050565b634e487b7160e01b600052601160045260246000fd5b808202811582820484141761057857610578611f25565b8082018082111561057857610578611f25565b600060018201611f7757611f77611f25565b5060010190565b600060208284031215611f9057600080fd5b8151610d8e81611c89565b634e487b7160e01b600052601260045260246000fd5b600082611fc057611fc0611f9b565b500490565b8181038181111561057857610578611f25565b600082611fe757611fe7611f9b565b500690565b60208082526032908201527f4552433732313a207472616e7366657220746f206e6f6e20455243373231526560408201527131b2b4bb32b91034b6b83632b6b2b73a32b960711b606082015260800190565b6001600160a01b038581168252841660208201526040810183905260806060820181905260009061207190830184611baf565b9695505050505050565b60006020828403121561208d57600080fd5b8151610d8e81611b58565b634e487b7160e01b600052603160045260246000fdfea2646970667358221220e83de13002126e6e21a2caedd9f1b2e48aaf10686a89c1067c9027e63c9778a564736f6c63430008130033",
        "nonce": "0x1d",
        "chainId": "0xaa36a7"
      },
      "additionalContracts": [],
      "isFixedGasLimit": false
    },
    {
      "hash": "0xbf29ba6cba0cad9b163f2ff6bfd6a9434bfbf8f75f9c8ea38396dab81b79007f",
      "transactionType": "CALL",
      "contractName": "CCNFT",
      "contractAddress": "0x4d6b665edfa00543e94313f6c14d1d72f06b02ee",
      "function": "setFundsToken(address)",
      "arguments": [
        "0x3ABcf0710cfCCA257f06CBD17007269cCA889a4f"
      ],
      "transaction": {
        "from": "0xe31aa6a4e35d523cb0ba6dfc72e83966ae0a417f",
        "to": "0x4d6b665edfa00543e94313f6c14d1d72f06b02ee",
        "gas": "0x9ce4",
        "value": "0x0",
        "input": "0x7198ba740000000000000000000000003abcf0710cfcca257f06cbd17007269cca889a4f",
        "nonce": "0x1e",
        "chainId": "0xaa36a7"
      },
      "additionalContracts": [],
      "isFixedGasLimit": false
    },
    {
      "hash": "0xe88a2b22157ccefa06d130848574e2365fe6c9e5ead869f39cb559ae51673a23",
      "transactionType": "CALL",
      "contractName": "CCNFT",
      "contractAddress": "0x4d6b665edfa00543e94313f6c14d1d72f06b02ee",
      "function": "setFundsCollector(address)",
      "arguments": [
        "0xE31aa6a4e35D523cB0bA6DFC72E83966aE0a417f"
      ],
      "transaction": {
        "from": "0xe31aa6a4e35d523cb0ba6dfc72e83966ae0a417f",
        "to": "0x4d6b665edfa00543e94313f6c14d1d72f06b02ee",
        "gas": "0xf8f8",
        "value": "0x0",
        "input": "0xe24b7139000000000000000000000000e31aa6a4e35d523cb0ba6dfc72e83966ae0a417f",
        "nonce": "0x1f",
        "chainId": "0xaa36a7"
      },
      "additionalContracts": [],
      "isFixedGasLimit": false
    },
    {
      "hash": "0xe77f31dc0b2a52beca630abd9030c9c1f49c842cf2a302c331eab1d214c3f3e3",
      "transactionType": "CALL",
      "contractName": "CCNFT",
      "contractAddress": "0x4d6b665edfa00543e94313f6c14d1d72f06b02ee",
      "function": "setFeesCollector(address)",
      "arguments": [
        "0xE31aa6a4e35D523cB0bA6DFC72E83966aE0a417f"
      ],
      "transaction": {
        "from": "0xe31aa6a4e35d523cb0ba6dfc72e83966ae0a417f",
        "to": "0x4d6b665edfa00543e94313f6c14d1d72f06b02ee",
        "gas": "0xf956",
        "value": "0x0",
        "input": "0x373071f2000000000000000000000000e31aa6a4e35d523cb0ba6dfc72e83966ae0a417f",
        "nonce": "0x20",
        "chainId": "0xaa36a7"
      },
      "additionalContracts": [],
      "isFixedGasLimit": false
    },
    {
      "hash": "0x88b8bafb2dfa599f5da71080a9bb7f60a6716a9497c9f6b15bafff55ed97dafd",
      "transactionType": "CALL",
      "contractName": "CCNFT",
      "contractAddress": "0x4d6b665edfa00543e94313f6c14d1d72f06b02ee",
      "function": "addValidValues(uint256)",
      "arguments": [
        "100000000000000000000"
      ],
      "transaction": {
        "from": "0xe31aa6a4e35d523cb0ba6dfc72e83966ae0a417f",
        "to": "0x4d6b665edfa00543e94313f6c14d1d72f06b02ee",
        "gas": "0xf7bc",
        "value": "0x0",
        "input": "0xc8a4ee9f0000000000000000000000000000000000000000000000056bc75e2d63100000",
        "nonce": "0x21",
        "chainId": "0xaa36a7"
      },
      "additionalContracts": [],
      "isFixedGasLimit": false
    },
    {
      "hash": "0x6ae15b94ff7e5a1e3c00c67fe68ccbb5745ea335f9a319bb10daddb009f52fa3",
      "transactionType": "CALL",
      "contractName": "CCNFT",
      "contractAddress": "0x4d6b665edfa00543e94313f6c14d1d72f06b02ee",
      "function": "addValidValues(uint256)",
      "arguments": [
        "500000000000000000000"
      ],
      "transaction": {
        "from": "0xe31aa6a4e35d523cb0ba6dfc72e83966ae0a417f",
        "to": "0x4d6b665edfa00543e94313f6c14d1d72f06b02ee",
        "gas": "0xf7bc",
        "value": "0x0",
        "input": "0xc8a4ee9f00000000000000000000000000000000000000000000001b1ae4d6e2ef500000",
        "nonce": "0x22",
        "chainId": "0xaa36a7"
      },
      "additionalContracts": [],
      "isFixedGasLimit": false
    },
    {
      "hash": "0xf845161db0ead20f6698452682b70a48321852c9bb0f8a155ec0587815d0990a",
      "transactionType": "CALL",
      "contractName": "CCNFT",
      "contractAddress": "0x4d6b665edfa00543e94313f6c14d1d72f06b02ee",
      "function": "addValidValues(uint256)",
      "arguments": [
        "1000000000000000000000"
      ],
      "transaction": {
        "from": "0xe31aa6a4e35d523cb0ba6dfc72e83966ae0a417f",
        "to": "0x4d6b665edfa00543e94313f6c14d1d72f06b02ee",
        "gas": "0xf7bc",
        "value": "0x0",
        "input": "0xc8a4ee9f00000000000000000000000000000000000000000000003635c9adc5dea00000",
        "nonce": "0x23",
        "chainId": "0xaa36a7"
      },
      "additionalContracts": [],
      "isFixedGasLimit": false
    },
    {
      "hash": "0x4262bdcb26ec73689c6bc6dcbfcb8a77407052d1e5619870e8a31cebc22a5267",
      "transactionType": "CALL",
      "contractName": "CCNFT",
      "contractAddress": "0x4d6b665edfa00543e94313f6c14d1d72f06b02ee",
      "function": "setCanBuy(bool)",
      "arguments": [
        "true"
      ],
      "transaction": {
        "from": "0xe31aa6a4e35d523cb0ba6dfc72e83966ae0a417f",
        "to": "0x4d6b665edfa00543e94313f6c14d1d72f06b02ee",
        "gas": "0x9b4b",
        "value": "0x0",
        "input": "0x2c06862b0000000000000000000000000000000000000000000000000000000000000001",
        "nonce": "0x24",
        "chainId": "0xaa36a7"
      },
      "additionalContracts": [],
      "isFixedGasLimit": false
    },
    {
      "hash": "0x0d2f363cacf15b6b16445b1c246a611266b6ffefb066c9b4d84e0dcd985ab735",
      "transactionType": "CALL",
      "contractName": "BUSD",
      "contractAddress": "0x3abcf0710cfcca257f06cbd17007269cca889a4f",
      "function": "approve(address,uint256)",
      "arguments": [
        "0x4d6b665edFa00543e94313F6c14d1d72F06B02eE",
        "1000000000000000000000000"
      ],
      "transaction": {
        "from": "0xe31aa6a4e35d523cb0ba6dfc72e83966ae0a417f",
        "to": "0x3abcf0710cfcca257f06cbd17007269cca889a4f",
        "gas": "0xf9a9",
        "value": "0x0",
        "input": "0x095ea7b30000000000000000000000004d6b665edfa00543e94313f6c14d1d72f06b02ee00000000000000000000000000000000000000000000d3c21bcecceda1000000",
        "nonce": "0x25",
        "chainId": "0xaa36a7"
      },
      "additionalContracts": [],
      "isFixedGasLimit": false
    },
    {
      "hash": "0x9d769229013fcf6a89eef01fbfc8eb823fef212785711a1d823b298d3c3032eb",
      "transactionType": "CALL",
      "contractName": "CCNFT",
      "contractAddress": "0x4d6b665edfa00543e94313f6c14d1d72f06b02ee",
      "function": "buy(uint256,uint256)",
      "arguments": [
        "100000000000000000000",
        "1"
      ],
      "transaction": {
        "from": "0xe31aa6a4e35d523cb0ba6dfc72e83966ae0a417f",
        "to": "0x4d6b665edfa00543e94313f6c14d1d72f06b02ee",
        "gas": "0x4cfb5",
        "value": "0x0",
        "input": "0xd6febde80000000000000000000000000000000000000000000000056bc75e2d631000000000000000000000000000000000000000000000000000000000000000000001",
        "nonce": "0x26",
        "chainId": "0xaa36a7"
      },
      "additionalContracts": [],
      "isFixedGasLimit": false
    }
  ],
  "receipts": [
    {
      "status": "0x1",
      "cumulativeGasUsed": "0x13fc0bd",
      "logs": [
        {
          "address": "0x3abcf0710cfcca257f06cbd17007269cca889a4f",
          "topics": [
            "0xddf252ad1be2c89b69c2b068fc378daa952ba7f163c4a11628f55a4df523b3ef",
            "0x0000000000000000000000000000000000000000000000000000000000000000",
            "0x000000000000000000000000e31aa6a4e35d523cb0ba6dfc72e83966ae0a417f"
          ],
          "data": "0x000000000000000000000000000000000000000000084595161401484a000000",
          "blockHash": "0x8c239773e0989f069dfce636b219dd3993474ed42a5e29f60e8e427f193f9dc4",
          "blockNumber": "0x84372f",
          "blockTimestamp": "0x68631558",
          "transactionHash": "0x2d5c59bd1f5bd93289ddbcde53b35c0eb6507034f7b025279b8566cda016effa",
          "transactionIndex": "0xca",
          "logIndex": "0x12e",
          "removed": false
        }
      ],
      "logsBloom": "0x00000000000000000000000000000000000000000000000010000000000000000000000000000000000000000000000000000000000000001000000000000000000000000000000000000008000000000000000000000000000000000000000000000000020000000000000000040800000000000000000000000010000000000000000000000000000000000000000000000100000000000000000000000000000000000000000000000000000000000000000000000000000000000000000400000002000000000000000000000000000000000000000000000020000020000000000000000000000000000000000000000000000000000000000000000000",
      "type": "0x2",
      "transactionHash": "0x2d5c59bd1f5bd93289ddbcde53b35c0eb6507034f7b025279b8566cda016effa",
      "transactionIndex": "0xca",
      "blockHash": "0x8c239773e0989f069dfce636b219dd3993474ed42a5e29f60e8e427f193f9dc4",
      "blockNumber": "0x84372f",
      "gasUsed": "0x9c776",
      "effectiveGasPrice": "0x1cf32e",
      "from": "0xe31aa6a4e35d523cb0ba6dfc72e83966ae0a417f",
      "to": null,
      "contractAddress": "0x3abcf0710cfcca257f06cbd17007269cca889a4f"
    },
    {
      "status": "0x1",
      "cumulativeGasUsed": "0x164a14c",
      "logs": [
        {
          "address": "0x4d6b665edfa00543e94313f6c14d1d72f06b02ee",
          "topics": [
            "0x8be0079c531659141344cd1fd0a4f28419497f9722a3daafe3b4186f6b6457e0",
            "0x0000000000000000000000000000000000000000000000000000000000000000",
            "0x000000000000000000000000e31aa6a4e35d523cb0ba6dfc72e83966ae0a417f"
          ],
          "data": "0x",
          "blockHash": "0x8c239773e0989f069dfce636b219dd3993474ed42a5e29f60e8e427f193f9dc4",
          "blockNumber": "0x84372f",
          "blockTimestamp": "0x68631558",
          "transactionHash": "0xff8b8b78ceeafa67417e5e76f69fe2146f2a7ba75af48a7ced7c75ec95f2f434",
          "transactionIndex": "0xd0",
          "logIndex": "0x133",
          "removed": false
        }
      ],
      "logsBloom": "0x00000000000000000000000000000000000000000000000010800000000000000000000000000000000000000000000000000000000000000000000000000000000000000000000000000000000000020011000000000000000000000000000000000000020000000000000000000800000000000000000000000000000000400000000000000000000000000000000000000100000000000000000000000000000000000000000000000000000000000000000000000000000000000000000400000000000000000000000000080000000000000000000000000000000020000000000000000000000000000000000000000000000000000000000000000000",
      "type": "0x2",
      "transactionHash": "0xff8b8b78ceeafa67417e5e76f69fe2146f2a7ba75af48a7ced7c75ec95f2f434",
      "transactionIndex": "0xd0",
      "blockHash": "0x8c239773e0989f069dfce636b219dd3993474ed42a5e29f60e8e427f193f9dc4",
      "blockNumber": "0x84372f",
      "gasUsed": "0x1f2495",
      "effectiveGasPrice": "0x1cf32e",
      "from": "0xe31aa6a4e35d523cb0ba6dfc72e83966ae0a417f",
      "to": null,
      "contractAddress": "0x4d6b665edfa00543e94313f6c14d1d72f06b02ee"
    },
    {
      "status": "0x1",
      "cumulativeGasUsed": "0x16e9ea7",
      "logs": [],
      "logsBloom": "0x00000000000000000000000000000000000000000000000000000000000000000000000000000000000000000000000000000000000000000000000000000000000000000000000000000000000000000000000000000000000000000000000000000000000000000000000000000000000000000000000000000000000000000000000000000000000000000000000000000000000000000000000000000000000000000000000000000000000000000000000000000000000000000000000000000000000000000000000000000000000000000000000000000000000000000000000000000000000000000000000000000000000000000000000000000000",
      "type": "0x2",
      "transactionHash": "0xbf29ba6cba0cad9b163f2ff6bfd6a9434bfbf8f75f9c8ea38396dab81b79007f",
      "transactionIndex": "0xd5",
      "blockHash": "0x8c239773e0989f069dfce636b219dd3993474ed42a5e29f60e8e427f193f9dc4",
      "blockNumber": "0x84372f",
      "gasUsed": "0x7197",
      "effectiveGasPrice": "0x1cf32e",
      "from": "0xe31aa6a4e35d523cb0ba6dfc72e83966ae0a417f",
      "to": "0x4d6b665edfa00543e94313f6c14d1d72f06b02ee",
      "contractAddress": null
    },
    {
      "status": "0x1",
      "cumulativeGasUsed": "0x16f52e7",
      "logs": [],
      "logsBloom": "0x00000000000000000000000000000000000000000000000000000000000000000000000000000000000000000000000000000000000000000000000000000000000000000000000000000000000000000000000000000000000000000000000000000000000000000000000000000000000000000000000000000000000000000000000000000000000000000000000000000000000000000000000000000000000000000000000000000000000000000000000000000000000000000000000000000000000000000000000000000000000000000000000000000000000000000000000000000000000000000000000000000000000000000000000000000000",
      "type": "0x2",
      "transactionHash": "0xe88a2b22157ccefa06d130848574e2365fe6c9e5ead869f39cb559ae51673a23",
      "transactionIndex": "0xd6",
      "blockHash": "0x8c239773e0989f069dfce636b219dd3993474ed42a5e29f60e8e427f193f9dc4",
      "blockNumber": "0x84372f",
      "gasUsed": "0xb440",
      "effectiveGasPrice": "0x1cf32e",
      "from": "0xe31aa6a4e35d523cb0ba6dfc72e83966ae0a417f",
      "to": "0x4d6b665edfa00543e94313f6c14d1d72f06b02ee",
      "contractAddress": null
    },
    {
      "status": "0x1",
      "cumulativeGasUsed": "0x170076b",
      "logs": [],
      "logsBloom": "0x00000000000000000000000000000000000000000000000000000000000000000000000000000000000000000000000000000000000000000000000000000000000000000000000000000000000000000000000000000000000000000000000000000000000000000000000000000000000000000000000000000000000000000000000000000000000000000000000000000000000000000000000000000000000000000000000000000000000000000000000000000000000000000000000000000000000000000000000000000000000000000000000000000000000000000000000000000000000000000000000000000000000000000000000000000000",
      "type": "0x2",
      "transactionHash": "0xe77f31dc0b2a52beca630abd9030c9c1f49c842cf2a302c331eab1d214c3f3e3",
      "transactionIndex": "0xd7",
      "blockHash": "0x8c239773e0989f069dfce636b219dd3993474ed42a5e29f60e8e427f193f9dc4",
      "blockNumber": "0x84372f",
      "gasUsed": "0xb484",
      "effectiveGasPrice": "0x1cf32e",
      "from": "0xe31aa6a4e35d523cb0ba6dfc72e83966ae0a417f",
      "to": "0x4d6b665edfa00543e94313f6c14d1d72f06b02ee",
      "contractAddress": null
    },
    {
      "status": "0x1",
      "cumulativeGasUsed": "0x170bac7",
      "logs": [],
      "logsBloom": "0x00000000000000000000000000000000000000000000000000000000000000000000000000000000000000000000000000000000000000000000000000000000000000000000000000000000000000000000000000000000000000000000000000000000000000000000000000000000000000000000000000000000000000000000000000000000000000000000000000000000000000000000000000000000000000000000000000000000000000000000000000000000000000000000000000000000000000000000000000000000000000000000000000000000000000000000000000000000000000000000000000000000000000000000000000000000",
      "type": "0x2",
      "transactionHash": "0x88b8bafb2dfa599f5da71080a9bb7f60a6716a9497c9f6b15bafff55ed97dafd",
      "transactionIndex": "0xd8",
      "blockHash": "0x8c239773e0989f069dfce636b219dd3993474ed42a5e29f60e8e427f193f9dc4",
      "blockNumber": "0x84372f",
      "gasUsed": "0xb35c",
      "effectiveGasPrice": "0x1cf32e",
      "from": "0xe31aa6a4e35d523cb0ba6dfc72e83966ae0a417f",
      "to": "0x4d6b665edfa00543e94313f6c14d1d72f06b02ee",
      "contractAddress": null
    },
    {
      "status": "0x1",
      "cumulativeGasUsed": "0x1716e23",
      "logs": [],
      "logsBloom": "0x00000000000000000000000000000000000000000000000000000000000000000000000000000000000000000000000000000000000000000000000000000000000000000000000000000000000000000000000000000000000000000000000000000000000000000000000000000000000000000000000000000000000000000000000000000000000000000000000000000000000000000000000000000000000000000000000000000000000000000000000000000000000000000000000000000000000000000000000000000000000000000000000000000000000000000000000000000000000000000000000000000000000000000000000000000000",
      "type": "0x2",
      "transactionHash": "0x6ae15b94ff7e5a1e3c00c67fe68ccbb5745ea335f9a319bb10daddb009f52fa3",
      "transactionIndex": "0xd9",
      "blockHash": "0x8c239773e0989f069dfce636b219dd3993474ed42a5e29f60e8e427f193f9dc4",
      "blockNumber": "0x84372f",
      "gasUsed": "0xb35c",
      "effectiveGasPrice": "0x1cf32e",
      "from": "0xe31aa6a4e35d523cb0ba6dfc72e83966ae0a417f",
      "to": "0x4d6b665edfa00543e94313f6c14d1d72f06b02ee",
      "contractAddress": null
    },
    {
      "status": "0x1",
      "cumulativeGasUsed": "0x172217f",
      "logs": [],
      "logsBloom": "0x00000000000000000000000000000000000000000000000000000000000000000000000000000000000000000000000000000000000000000000000000000000000000000000000000000000000000000000000000000000000000000000000000000000000000000000000000000000000000000000000000000000000000000000000000000000000000000000000000000000000000000000000000000000000000000000000000000000000000000000000000000000000000000000000000000000000000000000000000000000000000000000000000000000000000000000000000000000000000000000000000000000000000000000000000000000",
      "type": "0x2",
      "transactionHash": "0xf845161db0ead20f6698452682b70a48321852c9bb0f8a155ec0587815d0990a",
      "transactionIndex": "0xda",
      "blockHash": "0x8c239773e0989f069dfce636b219dd3993474ed42a5e29f60e8e427f193f9dc4",
      "blockNumber": "0x84372f",
      "gasUsed": "0xb35c",
      "effectiveGasPrice": "0x1cf32e",
      "from": "0xe31aa6a4e35d523cb0ba6dfc72e83966ae0a417f",
      "to": "0x4d6b665edfa00543e94313f6c14d1d72f06b02ee",
      "contractAddress": null
    },
    {
      "status": "0x1",
      "cumulativeGasUsed": "0x17291ee",
      "logs": [],
      "logsBloom": "0x00000000000000000000000000000000000000000000000000000000000000000000000000000000000000000000000000000000000000000000000000000000000000000000000000000000000000000000000000000000000000000000000000000000000000000000000000000000000000000000000000000000000000000000000000000000000000000000000000000000000000000000000000000000000000000000000000000000000000000000000000000000000000000000000000000000000000000000000000000000000000000000000000000000000000000000000000000000000000000000000000000000000000000000000000000000",
      "type": "0x2",
      "transactionHash": "0x4262bdcb26ec73689c6bc6dcbfcb8a77407052d1e5619870e8a31cebc22a5267",
      "transactionIndex": "0xdb",
      "blockHash": "0x8c239773e0989f069dfce636b219dd3993474ed42a5e29f60e8e427f193f9dc4",
      "blockNumber": "0x84372f",
      "gasUsed": "0x706f",
      "effectiveGasPrice": "0x1cf32e",
      "from": "0xe31aa6a4e35d523cb0ba6dfc72e83966ae0a417f",
      "to": "0x4d6b665edfa00543e94313f6c14d1d72f06b02ee",
      "contractAddress": null
    },
    {
      "status": "0x1",
      "cumulativeGasUsed": "0x17346ae",
      "logs": [
        {
          "address": "0x3abcf0710cfcca257f06cbd17007269cca889a4f",
          "topics": [
            "0x8c5be1e5ebec7d5bd14f71427d1e84f3dd0314c0f7b2291e5b200ac8c7c3b925",
            "0x000000000000000000000000e31aa6a4e35d523cb0ba6dfc72e83966ae0a417f",
            "0x0000000000000000000000004d6b665edfa00543e94313f6c14d1d72f06b02ee"
          ],
          "data": "0x00000000000000000000000000000000000000000000d3c21bcecceda1000000",
          "blockHash": "0x8c239773e0989f069dfce636b219dd3993474ed42a5e29f60e8e427f193f9dc4",
          "blockNumber": "0x84372f",
          "blockTimestamp": "0x68631558",
          "transactionHash": "0x0d2f363cacf15b6b16445b1c246a611266b6ffefb066c9b4d84e0dcd985ab735",
          "transactionIndex": "0xdc",
          "logIndex": "0x13c",
          "removed": false
        }
      ],
      "logsBloom": "0x00000000000000000000000000000000000000000000000010000000000000000000000080000000000000000000000000000000000000001000000000200000000000000000000000000000000000000400000000000000000000000000000000000000000080000000000000040000000000000000000000000000000000000000000000000000000000000000000000000100000000000000000000000000020000000000000000000000000000000000000000000000000000000000000400000000000000000000000000000000000000000000000000000020000000000010000000000000000000000000000000000000000000000000000000000000",
      "type": "0x2",
      "transactionHash": "0x0d2f363cacf15b6b16445b1c246a611266b6ffefb066c9b4d84e0dcd985ab735",
      "transactionIndex": "0xdc",
      "blockHash": "0x8c239773e0989f069dfce636b219dd3993474ed42a5e29f60e8e427f193f9dc4",
      "blockNumber": "0x84372f",
      "gasUsed": "0xb4c0",
      "effectiveGasPrice": "0x1cf32e",
      "from": "0xe31aa6a4e35d523cb0ba6dfc72e83966ae0a417f",
      "to": "0x3abcf0710cfcca257f06cbd17007269cca889a4f",
      "contractAddress": null
    },
    {
      "status": "0x1",
      "cumulativeGasUsed": "0x176c26b",
      "logs": [
        {
          "address": "0x4d6b665edfa00543e94313f6c14d1d72f06b02ee",
          "topics": [
            "0xddf252ad1be2c89b69c2b068fc378daa952ba7f163c4a11628f55a4df523b3ef",
            "0x0000000000000000000000000000000000000000000000000000000000000000",
            "0x000000000000000000000000e31aa6a4e35d523cb0ba6dfc72e83966ae0a417f",
            "0x0000000000000000000000000000000000000000000000000000000000000001"
          ],
          "data": "0x",
          "blockHash": "0x8c239773e0989f069dfce636b219dd3993474ed42a5e29f60e8e427f193f9dc4",
          "blockNumber": "0x84372f",
          "blockTimestamp": "0x68631558",
          "transactionHash": "0x9d769229013fcf6a89eef01fbfc8eb823fef212785711a1d823b298d3c3032eb",
          "transactionIndex": "0xdd",
          "logIndex": "0x13d",
          "removed": false
        },
        {
          "address": "0x4d6b665edfa00543e94313f6c14d1d72f06b02ee",
          "topics": [
            "0x1cbc5ab135991bd2b6a4b034a04aa2aa086dac1371cb9b16b8b5e2ed6b036bed",
            "0x000000000000000000000000e31aa6a4e35d523cb0ba6dfc72e83966ae0a417f",
            "0x0000000000000000000000000000000000000000000000000000000000000001"
          ],
          "data": "0x0000000000000000000000000000000000000000000000056bc75e2d63100000",
          "blockHash": "0x8c239773e0989f069dfce636b219dd3993474ed42a5e29f60e8e427f193f9dc4",
          "blockNumber": "0x84372f",
          "blockTimestamp": "0x68631558",
          "transactionHash": "0x9d769229013fcf6a89eef01fbfc8eb823fef212785711a1d823b298d3c3032eb",
          "transactionIndex": "0xdd",
          "logIndex": "0x13e",
          "removed": false
        },
        {
          "address": "0x3abcf0710cfcca257f06cbd17007269cca889a4f",
          "topics": [
            "0x8c5be1e5ebec7d5bd14f71427d1e84f3dd0314c0f7b2291e5b200ac8c7c3b925",
            "0x000000000000000000000000e31aa6a4e35d523cb0ba6dfc72e83966ae0a417f",
            "0x0000000000000000000000004d6b665edfa00543e94313f6c14d1d72f06b02ee"
          ],
          "data": "0x00000000000000000000000000000000000000000000d3bcb0076ec03df00000",
          "blockHash": "0x8c239773e0989f069dfce636b219dd3993474ed42a5e29f60e8e427f193f9dc4",
          "blockNumber": "0x84372f",
          "blockTimestamp": "0x68631558",
          "transactionHash": "0x9d769229013fcf6a89eef01fbfc8eb823fef212785711a1d823b298d3c3032eb",
          "transactionIndex": "0xdd",
          "logIndex": "0x13f",
          "removed": false
        },
        {
          "address": "0x3abcf0710cfcca257f06cbd17007269cca889a4f",
          "topics": [
            "0xddf252ad1be2c89b69c2b068fc378daa952ba7f163c4a11628f55a4df523b3ef",
            "0x000000000000000000000000e31aa6a4e35d523cb0ba6dfc72e83966ae0a417f",
            "0x000000000000000000000000e31aa6a4e35d523cb0ba6dfc72e83966ae0a417f"
          ],
          "data": "0x0000000000000000000000000000000000000000000000056bc75e2d63100000",
          "blockHash": "0x8c239773e0989f069dfce636b219dd3993474ed42a5e29f60e8e427f193f9dc4",
          "blockNumber": "0x84372f",
          "blockTimestamp": "0x68631558",
          "transactionHash": "0x9d769229013fcf6a89eef01fbfc8eb823fef212785711a1d823b298d3c3032eb",
          "transactionIndex": "0xdd",
          "logIndex": "0x140",
          "removed": false
        },
        {
          "address": "0x3abcf0710cfcca257f06cbd17007269cca889a4f",
          "topics": [
            "0x8c5be1e5ebec7d5bd14f71427d1e84f3dd0314c0f7b2291e5b200ac8c7c3b925",
            "0x000000000000000000000000e31aa6a4e35d523cb0ba6dfc72e83966ae0a417f",
            "0x0000000000000000000000004d6b665edfa00543e94313f6c14d1d72f06b02ee"
          ],
          "data": "0x00000000000000000000000000000000000000000000d3bc8d55a5ff1b760000",
          "blockHash": "0x8c239773e0989f069dfce636b219dd3993474ed42a5e29f60e8e427f193f9dc4",
          "blockNumber": "0x84372f",
          "blockTimestamp": "0x68631558",
          "transactionHash": "0x9d769229013fcf6a89eef01fbfc8eb823fef212785711a1d823b298d3c3032eb",
          "transactionIndex": "0xdd",
          "logIndex": "0x141",
          "removed": false
        },
        {
          "address": "0x3abcf0710cfcca257f06cbd17007269cca889a4f",
          "topics": [
            "0xddf252ad1be2c89b69c2b068fc378daa952ba7f163c4a11628f55a4df523b3ef",
            "0x000000000000000000000000e31aa6a4e35d523cb0ba6dfc72e83966ae0a417f",
            "0x000000000000000000000000e31aa6a4e35d523cb0ba6dfc72e83966ae0a417f"
          ],
          "data": "0x00000000000000000000000000000000000000000000000022b1c8c1227a0000",
          "blockHash": "0x8c239773e0989f069dfce636b219dd3993474ed42a5e29f60e8e427f193f9dc4",
          "blockNumber": "0x84372f",
          "blockTimestamp": "0x68631558",
          "transactionHash": "0x9d769229013fcf6a89eef01fbfc8eb823fef212785711a1d823b298d3c3032eb",
          "transactionIndex": "0xdd",
          "logIndex": "0x142",
          "removed": false
        }
      ],
      "logsBloom": "0x00000000000000000000000000000000000000000000000010000000000000000000000280000000000000000000000000000000000000001000000000240000000000000000000000000008000000020410000000040000000000000000000000000000020080000000000000040800000000000000000000000010000000000000000000000000000000000000000000000100000000000000000000000000020000000400000040000000000000000000000000000000000000000000000400000002000000000000000000080000000000000000000000000020000060000010000000000000000000000000000000000000000000000000000000000000",
      "type": "0x2",
      "transactionHash": "0x9d769229013fcf6a89eef01fbfc8eb823fef212785711a1d823b298d3c3032eb",
      "transactionIndex": "0xdd",
      "blockHash": "0x8c239773e0989f069dfce636b219dd3993474ed42a5e29f60e8e427f193f9dc4",
      "blockNumber": "0x84372f",
      "gasUsed": "0x37bbd",
      "effectiveGasPrice": "0x1cf32e",
      "from": "0xe31aa6a4e35d523cb0ba6dfc72e83966ae0a417f",
      "to": "0x4d6b665edfa00543e94313f6c14d1d72f06b02ee",
      "contractAddress": null
    }
  ],
  "libraries": [],
  "pending": [],
  "returns": {},
  "timestamp": 1751323993,
  "chain": 11155111,
  "commit": null
}